{
  "_format": "hh-sol-artifact-1",
  "contractName": "Donations",
  "sourceName": "contracts/Donations.sol",
  "abi": [
    {
      "inputs": [],
      "stateMutability": "nonpayable",
      "type": "constructor"
    },
    {
      "inputs": [
        {
          "internalType": "string",
          "name": "cause",
          "type": "string"
        }
      ],
      "name": "addCause",
      "outputs": [],
      "stateMutability": "nonpayable",
      "type": "function"
    },
    {
      "inputs": [
        {
          "internalType": "string",
          "name": "token",
          "type": "string"
        }
      ],
      "name": "addToken",
      "outputs": [],
      "stateMutability": "nonpayable",
      "type": "function"
    },
    {
      "inputs": [],
      "name": "campaigns_count",
      "outputs": [
        {
          "internalType": "uint64",
          "name": "",
          "type": "uint64"
        }
      ],
      "stateMutability": "view",
      "type": "function"
    },
    {
      "inputs": [],
      "name": "causes_count",
      "outputs": [
        {
          "internalType": "uint64",
          "name": "",
          "type": "uint64"
        }
      ],
      "stateMutability": "view",
      "type": "function"
    },
    {
      "inputs": [
        {
          "internalType": "string",
          "name": "title",
          "type": "string"
        },
        {
          "internalType": "address",
          "name": "donation_token",
          "type": "address"
        },
        {
          "internalType": "uint256",
          "name": "target",
          "type": "uint256"
        },
        {
          "internalType": "string",
          "name": "cause",
          "type": "string"
        },
        {
          "internalType": "string",
          "name": "description",
          "type": "string"
        },
        {
          "internalType": "string",
          "name": "image",
          "type": "string"
        },
        {
          "internalType": "string",
          "name": "start_date",
          "type": "string"
        },
        {
          "internalType": "string",
          "name": "end_date",
          "type": "string"
        }
      ],
      "name": "createCampaign",
      "outputs": [],
      "stateMutability": "nonpayable",
      "type": "function"
    },
    {
      "inputs": [
        {
          "internalType": "uint256",
          "name": "campaignId",
          "type": "uint256"
        },
        {
          "internalType": "uint256",
          "name": "amount",
          "type": "uint256"
        },
        {
          "internalType": "string",
          "name": "date",
          "type": "string"
        }
      ],
      "name": "donate",
      "outputs": [],
      "stateMutability": "payable",
      "type": "function"
    },
    {
      "inputs": [],
      "name": "donations_count",
      "outputs": [
        {
          "internalType": "uint64",
          "name": "",
          "type": "uint64"
        }
      ],
      "stateMutability": "view",
      "type": "function"
    },
    {
      "inputs": [],
      "name": "events_count",
      "outputs": [
        {
          "internalType": "uint64",
          "name": "",
          "type": "uint64"
        }
      ],
      "stateMutability": "view",
      "type": "function"
    },
    {
      "inputs": [],
      "name": "getAccountPartners",
      "outputs": [
        {
          "internalType": "string[]",
          "name": "",
          "type": "string[]"
        }
      ],
      "stateMutability": "view",
      "type": "function"
    },
    {
      "inputs": [
        {
          "internalType": "uint256",
          "name": "id",
          "type": "uint256"
        }
      ],
      "name": "getCampaign",
      "outputs": [
        {
          "components": [
            {
              "internalType": "uint256",
              "name": "id",
              "type": "uint256"
            },
            {
              "internalType": "string",
              "name": "title",
              "type": "string"
            },
            {
              "internalType": "string",
              "name": "cause",
              "type": "string"
            },
            {
              "internalType": "string",
              "name": "description",
              "type": "string"
            },
            {
              "internalType": "string",
              "name": "image",
              "type": "string"
            },
            {
              "internalType": "string",
              "name": "start_date",
              "type": "string"
            },
            {
              "internalType": "address",
              "name": "donation_token",
              "type": "address"
            },
            {
              "internalType": "uint256",
              "name": "total",
              "type": "uint256"
            },
            {
              "internalType": "uint256",
              "name": "donations_count",
              "type": "uint256"
            },
            {
              "internalType": "uint256",
              "name": "target",
              "type": "uint256"
            }
          ],
          "internalType": "struct ReturnCampaign",
          "name": "",
          "type": "tuple"
        }
      ],
      "stateMutability": "view",
      "type": "function"
    },
    {
      "inputs": [
        {
          "internalType": "uint256",
          "name": "campaignId",
          "type": "uint256"
        },
        {
          "internalType": "uint256",
          "name": "page",
          "type": "uint256"
        }
      ],
      "name": "getCampaignDonations",
      "outputs": [
        {
          "components": [
            {
              "internalType": "uint256",
              "name": "campaignId",
              "type": "uint256"
            },
            {
              "internalType": "address",
              "name": "donor",
              "type": "address"
            },
            {
              "internalType": "uint256",
              "name": "amount",
              "type": "uint256"
            },
            {
              "internalType": "string",
              "name": "date",
              "type": "string"
            }
          ],
          "internalType": "struct Donation[]",
          "name": "",
          "type": "tuple[]"
        }
      ],
      "stateMutability": "view",
      "type": "function"
    },
    {
      "inputs": [
        {
          "internalType": "uint256",
          "name": "campaignId",
          "type": "uint256"
        }
      ],
      "name": "getCampaignPartners",
      "outputs": [
        {
          "internalType": "string[]",
          "name": "",
          "type": "string[]"
        },
        {
          "internalType": "uint256[]",
          "name": "",
          "type": "uint256[]"
        }
      ],
      "stateMutability": "view",
      "type": "function"
    },
    {
      "inputs": [
        {
          "internalType": "uint256",
          "name": "campaignId",
          "type": "uint256"
        }
      ],
      "name": "getCampaignVoter",
      "outputs": [
        {
          "internalType": "bool",
          "name": "",
          "type": "bool"
        }
      ],
      "stateMutability": "view",
      "type": "function"
    },
    {
      "inputs": [
        {
          "internalType": "uint256",
          "name": "campaignId",
          "type": "uint256"
        }
      ],
      "name": "getCampaignVoters",
      "outputs": [
        {
          "internalType": "address[]",
          "name": "",
          "type": "address[]"
        }
      ],
      "stateMutability": "view",
      "type": "function"
    },
    {
      "inputs": [
        {
          "internalType": "uint256",
          "name": "page",
          "type": "uint256"
        }
      ],
      "name": "getCampaigns",
      "outputs": [
        {
          "components": [
            {
              "internalType": "uint256",
              "name": "id",
              "type": "uint256"
            },
            {
              "internalType": "string",
              "name": "title",
              "type": "string"
            },
            {
              "internalType": "string",
              "name": "cause",
              "type": "string"
            },
            {
              "internalType": "string",
              "name": "description",
              "type": "string"
            },
            {
              "internalType": "string",
              "name": "image",
              "type": "string"
            },
            {
              "internalType": "string",
              "name": "start_date",
              "type": "string"
            },
            {
              "internalType": "address",
              "name": "donation_token",
              "type": "address"
            },
            {
              "internalType": "uint256",
              "name": "total",
              "type": "uint256"
            },
            {
              "internalType": "uint256",
              "name": "donations_count",
              "type": "uint256"
            },
            {
              "internalType": "uint256",
              "name": "target",
              "type": "uint256"
            }
          ],
          "internalType": "struct ReturnCampaign[]",
          "name": "",
          "type": "tuple[]"
        }
      ],
      "stateMutability": "view",
      "type": "function"
    },
    {
      "inputs": [],
      "name": "getCauses",
      "outputs": [
        {
          "internalType": "string[]",
          "name": "",
          "type": "string[]"
        }
      ],
      "stateMutability": "view",
      "type": "function"
    },
    {
      "inputs": [],
      "name": "getDonationsStats",
      "outputs": [
        {
          "components": [
            {
              "internalType": "uint64",
              "name": "causes",
              "type": "uint64"
            },
            {
              "internalType": "uint64",
              "name": "events",
              "type": "uint64"
            },
            {
              "internalType": "uint64",
              "name": "campaigns",
              "type": "uint64"
            },
            {
              "internalType": "uint64",
              "name": "donations",
              "type": "uint64"
            },
            {
              "internalType": "uint64",
              "name": "tokens",
              "type": "uint64"
            },
            {
              "internalType": "uint64",
              "name": "partners",
              "type": "uint64"
            },
            {
              "internalType": "uint256",
              "name": "total_usd",
              "type": "uint256"
            }
          ],
          "internalType": "struct ContractStats",
          "name": "",
          "type": "tuple"
        }
      ],
      "stateMutability": "view",
      "type": "function"
    },
    {
      "inputs": [
        {
          "internalType": "string",
          "name": "id",
          "type": "string"
        }
      ],
      "name": "getPartner",
      "outputs": [
        {
          "components": [
            {
              "internalType": "string",
              "name": "id",
              "type": "string"
            },
            {
              "internalType": "string",
              "name": "name",
              "type": "string"
            },
            {
              "internalType": "string",
              "name": "logo",
              "type": "string"
            },
            {
              "internalType": "string",
              "name": "expertise_fields",
              "type": "string"
            },
            {
              "internalType": "address",
              "name": "wallet",
              "type": "address"
            }
          ],
          "internalType": "struct Partner",
          "name": "",
          "type": "tuple"
        }
      ],
      "stateMutability": "view",
      "type": "function"
    },
    {
      "inputs": [],
      "name": "getTokens",
      "outputs": [
        {
          "internalType": "string[]",
          "name": "",
          "type": "string[]"
        }
      ],
      "stateMutability": "view",
      "type": "function"
    },
    {
      "inputs": [],
      "name": "partners_count",
      "outputs": [
        {
          "internalType": "uint64",
          "name": "",
          "type": "uint64"
        }
      ],
      "stateMutability": "view",
      "type": "function"
    },
    {
      "inputs": [
        {
          "internalType": "uint256",
          "name": "campaignId",
          "type": "uint256"
        },
        {
          "internalType": "string",
          "name": "partner_id",
          "type": "string"
        }
      ],
      "name": "registerCampaignPartner",
      "outputs": [],
      "stateMutability": "nonpayable",
      "type": "function"
    },
    {
      "inputs": [
        {
          "internalType": "string",
          "name": "id",
          "type": "string"
        },
        {
          "internalType": "string",
          "name": "name",
          "type": "string"
        },
        {
          "internalType": "string",
          "name": "logo",
          "type": "string"
        },
        {
          "internalType": "string",
          "name": "expertise_fields",
          "type": "string"
        },
        {
          "internalType": "address",
          "name": "wallet",
          "type": "address"
        }
      ],
      "name": "registerPartner",
      "outputs": [],
      "stateMutability": "nonpayable",
      "type": "function"
    },
    {
      "inputs": [],
      "name": "running",
      "outputs": [
        {
          "internalType": "bool",
          "name": "",
          "type": "bool"
        }
      ],
      "stateMutability": "view",
      "type": "function"
    },
    {
      "inputs": [],
      "name": "tokens_count",
      "outputs": [
        {
          "internalType": "uint64",
          "name": "",
          "type": "uint64"
        }
      ],
      "stateMutability": "view",
      "type": "function"
    },
    {
      "inputs": [],
      "name": "total_usd",
      "outputs": [
        {
          "internalType": "uint256",
          "name": "",
          "type": "uint256"
        }
      ],
      "stateMutability": "view",
      "type": "function"
    },
    {
      "inputs": [
        {
          "internalType": "uint256",
          "name": "campaignId",
          "type": "uint256"
        },
        {
          "internalType": "string",
          "name": "partner_id",
          "type": "string"
        }
      ],
      "name": "vote",
      "outputs": [],
      "stateMutability": "nonpayable",
      "type": "function"
    }
  ],
  "bytecode": "0x6080604052600a600c556014600d5534801561001a57600080fd5b506000339080600181540180825580915050600190039060005260206000200160009091909190916101000a81548173ffffffffffffffffffffffffffffffffffffffff021916908373ffffffffffffffffffffffffffffffffffffffff16021790555060018060006101000a81548160ff021916908315150217905550613b72806100a76000396000f3fe6080604052600436106101805760003560e01c80637ae47317116100d1578063aa6ca8081161008a578063d85bd52611610064578063d85bd52614610589578063d88926b8146105b4578063e8e9d3a4146105df578063e9d513c11461060a57610180565b8063aa6ca8081461050a578063ae8f4a3814610535578063d523f9a01461056057610180565b80637ae47317146103e85780637c7e276414610425578063851edd471461046257806389c73df11461048d5780638ce26108146104b8578063a6777dcf146104e157610180565b80634fc770921161013e5780636bfe35be116101185780636bfe35be1461032e57806370aca061146103575780637333282f14610380578063799a374b146103bd57610180565b80634fc7709214610288578063504eaaac146102b35780635598f8cc146102f157610180565b80621045581461018557806313bc043f146101b057806316c3cdf5146101db57806322461845146101f757806324108475146102345780633fd825011461025d575b600080fd5b34801561019157600080fd5b5061019a610647565b6040516101a79190612a37565b60405180910390f35b3480156101bc57600080fd5b506101c561075d565b6040516101d29190612a7c565b60405180910390f35b6101f560048036038101906101f09190612c16565b610777565b005b34801561020357600080fd5b5061021e60048036038101906102199190612c85565b6109ad565b60405161022b9190612d9a565b60405180910390f35b34801561024057600080fd5b5061025b60048036038101906102569190612dbc565b610c83565b005b34801561026957600080fd5b50610272610d83565b60405161027f9190612a7c565b60405180910390f35b34801561029457600080fd5b5061029d610d9d565b6040516102aa9190612a37565b60405180910390f35b3480156102bf57600080fd5b506102da60048036038101906102d59190612e18565b610e76565b6040516102e8929190612f03565b60405180910390f35b3480156102fd57600080fd5b5061031860048036038101906103139190612e18565b61114d565b6040516103259190613030565b60405180910390f35b34801561033a57600080fd5b506103556004803603810190610350919061307e565b6114c6565b005b34801561036357600080fd5b5061037e600480360381019061037991906131dc565b61170d565b005b34801561038c57600080fd5b506103a760048036038101906103a291906132c7565b6118f8565b6040516103b4919061342c565b60405180910390f35b3480156103c957600080fd5b506103d2611bad565b6040516103df9190612a7c565b60405180910390f35b3480156103f457600080fd5b5061040f600480360381019061040a9190612e18565b611bc7565b60405161041c9190613606565b60405180910390f35b34801561043157600080fd5b5061044c60048036038101906104479190612e18565b6120b5565b6040516104599190613643565b60405180910390f35b34801561046e57600080fd5b50610477612188565b6040516104849190612a7c565b60405180910390f35b34801561049957600080fd5b506104a26121a2565b6040516104af919061366d565b60405180910390f35b3480156104c457600080fd5b506104df60048036038101906104da9190612c85565b6121a8565b005b3480156104ed57600080fd5b5061050860048036038101906105039190612c85565b612234565b005b34801561051657600080fd5b5061051f6122c0565b60405161052c9190612a37565b60405180910390f35b34801561054157600080fd5b5061054a612399565b6040516105579190612a7c565b60405180910390f35b34801561056c57600080fd5b5061058760048036038101906105829190612dbc565b6123b3565b005b34801561059557600080fd5b5061059e612433565b6040516105ab9190613643565b60405180910390f35b3480156105c057600080fd5b506105c9612446565b6040516105d69190613725565b60405180910390f35b3480156105eb57600080fd5b506105f46125ad565b6040516106019190612a7c565b60405180910390f35b34801561061657600080fd5b50610631600480360381019061062c9190612e18565b6125c7565b60405161063e91906137ef565b60405180910390f35b6060600860003373ffffffffffffffffffffffffffffffffffffffff1673ffffffffffffffffffffffffffffffffffffffff168152602001908152602001600020805480602002602001604051908101604052809291908181526020016000905b828210156107545783829060005260206000200180546106c790613840565b80601f01602080910402602001604051908101604052809291908181526020018280546106f390613840565b80156107405780601f1061071557610100808354040283529160200191610740565b820191906000526020600020905b81548152906001019060200180831161072357829003601f168201915b5050505050815260200190600101906106a8565b50505050905090565b600a60189054906101000a900467ffffffffffffffff1681565b600060405180608001604052808581526020013373ffffffffffffffffffffffffffffffffffffffff168152602001848152602001838152509050600560008581526020019081526020016000208190806001815401808255809150506001900390600052602060002090600402016000909190919091506000820151816000015560208201518160010160006101000a81548173ffffffffffffffffffffffffffffffffffffffff021916908373ffffffffffffffffffffffffffffffffffffffff1602179055506040820151816002015560608201518160030190805190602001906108669291906126d4565b5050508260036000868152602001908152602001600020600801600082825461088f91906138a1565b9250508190555060016003600086815260200190815260200160002060090160008282546108bd91906138a1565b9250508190555060036000858152602001908152602001600020600d01339080600181540180825580915050600190039060005260206000200160009091909190916101000a81548173ffffffffffffffffffffffffffffffffffffffff021916908373ffffffffffffffffffffffffffffffffffffffff160217905550600160036000868152602001908152602001600020600e0160003373ffffffffffffffffffffffffffffffffffffffff1673ffffffffffffffffffffffffffffffffffffffff16815260200190815260200160002060006101000a81548160ff02191690831515021790555050505050565b6109b561275a565b6007826040516109c59190613933565b90815260200160405180910390206040518060a00160405290816000820180546109ee90613840565b80601f0160208091040260200160405190810160405280929190818152602001828054610a1a90613840565b8015610a675780601f10610a3c57610100808354040283529160200191610a67565b820191906000526020600020905b815481529060010190602001808311610a4a57829003601f168201915b50505050508152602001600182018054610a8090613840565b80601f0160208091040260200160405190810160405280929190818152602001828054610aac90613840565b8015610af95780601f10610ace57610100808354040283529160200191610af9565b820191906000526020600020905b815481529060010190602001808311610adc57829003601f168201915b50505050508152602001600282018054610b1290613840565b80601f0160208091040260200160405190810160405280929190818152602001828054610b3e90613840565b8015610b8b5780601f10610b6057610100808354040283529160200191610b8b565b820191906000526020600020905b815481529060010190602001808311610b6e57829003601f168201915b50505050508152602001600382018054610ba490613840565b80601f0160208091040260200160405190810160405280929190818152602001828054610bd090613840565b8015610c1d5780601f10610bf257610100808354040283529160200191610c1d565b820191906000526020600020905b815481529060010190602001808311610c0057829003601f168201915b505050505081526020016004820160009054906101000a900473ffffffffffffffffffffffffffffffffffffffff1673ffffffffffffffffffffffffffffffffffffffff1673ffffffffffffffffffffffffffffffffffffffff16815250509050919050565b6000600360008481526020019081526020016000209050600081600e0160003373ffffffffffffffffffffffffffffffffffffffff1673ffffffffffffffffffffffffffffffffffffffff16815260200190815260200160002060009054906101000a900460ff1690508015610d7d5760018260100184604051610d079190613933565b90815260200160405180910390206000828254610d2491906138a1565b9250508190555081600e0160003373ffffffffffffffffffffffffffffffffffffffff1673ffffffffffffffffffffffffffffffffffffffff16815260200190815260200160002060006101000a81549060ff02191690555b50505050565b600b60009054906101000a900467ffffffffffffffff1681565b60606002805480602002602001604051908101604052809291908181526020016000905b82821015610e6d578382906000526020600020018054610de090613840565b80601f0160208091040260200160405190810160405280929190818152602001828054610e0c90613840565b8015610e595780601f10610e2e57610100808354040283529160200191610e59565b820191906000526020600020905b815481529060010190602001808311610e3c57829003601f168201915b505050505081526020019060010190610dc1565b50505050905090565b606080600a60109054906101000a900467ffffffffffffffff1667ffffffffffffffff16831115610edc576040517f08c379a0000000000000000000000000000000000000000000000000000000008152600401610ed3906139a7565b60405180910390fd5b6000600360008581526020019081526020016000209050600081600f0180549050905060008167ffffffffffffffff811115610f1b57610f1a612aeb565b5b604051908082528060200260200182016040528015610f495781602001602082028036833780820191505090505b5090506000805b8381101561106757600085600f018281548110610f7057610f6f6139c7565b5b906000526020600020018054610f8590613840565b80601f0160208091040260200160405190810160405280929190818152602001828054610fb190613840565b8015610ffe5780601f10610fd357610100808354040283529160200191610ffe565b820191906000526020600020905b815481529060010190602001808311610fe157829003601f168201915b5050505050905085601001816040516110179190613933565b908152602001604051809103902054848481518110611039576110386139c7565b5b6020026020010181815250508280611050906139f6565b93505050808061105f906139f6565b915050610f50565b5083600f018281805480602002602001604051908101604052809291908181526020016000905b8282101561113a5783829060005260206000200180546110ad90613840565b80601f01602080910402602001604051908101604052809291908181526020018280546110d990613840565b80156111265780601f106110fb57610100808354040283529160200191611126565b820191906000526020600020905b81548152906001019060200180831161110957829003601f168201915b50505050508152602001906001019061108e565b5050505091509550955050505050915091565b61115561279f565b600060036000848152602001908152602001600020905060006040518061014001604052808360000154815260200183600101805461119390613840565b80601f01602080910402602001604051908101604052809291908181526020018280546111bf90613840565b801561120c5780601f106111e15761010080835404028352916020019161120c565b820191906000526020600020905b8154815290600101906020018083116111ef57829003601f168201915b5050505050815260200183600201805461122590613840565b80601f016020809104026020016040519081016040528092919081815260200182805461125190613840565b801561129e5780601f106112735761010080835404028352916020019161129e565b820191906000526020600020905b81548152906001019060200180831161128157829003601f168201915b505050505081526020018360040180546112b790613840565b80601f01602080910402602001604051908101604052809291908181526020018280546112e390613840565b80156113305780601f1061130557610100808354040283529160200191611330565b820191906000526020600020905b81548152906001019060200180831161131357829003601f168201915b5050505050815260200183600301805461134990613840565b80601f016020809104026020016040519081016040528092919081815260200182805461137590613840565b80156113c25780601f10611397576101008083540402835291602001916113c2565b820191906000526020600020905b8154815290600101906020018083116113a557829003601f168201915b505050505081526020018360050180546113db90613840565b80601f016020809104026020016040519081016040528092919081815260200182805461140790613840565b80156114545780601f1061142957610100808354040283529160200191611454565b820191906000526020600020905b81548152906001019060200180831161143757829003601f168201915b505050505081526020018360070160009054906101000a900473ffffffffffffffffffffffffffffffffffffffff1673ffffffffffffffffffffffffffffffffffffffff168152602001836008015481526020018360090154815260200183600a015481525090508092505050919050565b6001600a60108282829054906101000a900467ffffffffffffffff166114ec9190613a3f565b92506101000a81548167ffffffffffffffff021916908367ffffffffffffffff160217905550600060036000600a60109054906101000a900467ffffffffffffffff1667ffffffffffffffff1681526020019081526020016000209050600a60109054906101000a900467ffffffffffffffff1667ffffffffffffffff1681600001819055508881600101908051906020019061158a9291906126d4565b50878160070160006101000a81548173ffffffffffffffffffffffffffffffffffffffff021916908373ffffffffffffffffffffffffffffffffffffffff160217905550858160020190805190602001906115e69291906126d4565b50838160030190805190602001906115ff9291906126d4565b50828160050190805190602001906116189291906126d4565b50818160060190805190602001906116319291906126d4565b508481600401908051906020019061164a9291906126d4565b506000816008018190555060008160090181905550600081600b0181905550600081600c01819055508681600a0181905550600460003373ffffffffffffffffffffffffffffffffffffffff1673ffffffffffffffffffffffffffffffffffffffff168152602001908152602001600020600a60109054906101000a900467ffffffffffffffff16908060018154018082558091505060019003906000526020600020016000909167ffffffffffffffff16909190915055505050505050505050565b60006040518060a001604052808781526020018681526020018581526020018481526020018373ffffffffffffffffffffffffffffffffffffffff1681525090508060078760405161175f9190613933565b908152602001604051809103902060008201518160000190805190602001906117899291906126d4565b5060208201518160010190805190602001906117a69291906126d4565b5060408201518160020190805190602001906117c39291906126d4565b5060608201518160030190805190602001906117e09291906126d4565b5060808201518160040160006101000a81548173ffffffffffffffffffffffffffffffffffffffff021916908373ffffffffffffffffffffffffffffffffffffffff160217905550905050600860003373ffffffffffffffffffffffffffffffffffffffff1673ffffffffffffffffffffffffffffffffffffffff168152602001908152602001600020869080600181540180825580915050600190039060005260206000200160009091909190915090805190602001906118a39291906126d4565b506001600b60088282829054906101000a900467ffffffffffffffff166118ca9190613a3f565b92506101000a81548167ffffffffffffffff021916908367ffffffffffffffff160217905550505050505050565b606060006001836119099190613a7d565b600c546119169190613ab1565b90506000600c548261192891906138a1565b90506000600560008781526020019081526020016000208054905090508083106119ab57600067ffffffffffffffff81111561196757611966612aeb565b5b6040519080825280602002602001820160405280156119a057816020015b61198d612808565b8152602001906001900390816119855790505b509350505050611ba7565b808211156119b7578091505b600083836119c59190613a7d565b67ffffffffffffffff8111156119de576119dd612aeb565b5b604051908082528060200260200182016040528015611a1757816020015b611a04612808565b8152602001906001900390816119fc5790505b50905060008490505b83811015611b9e57600560008981526020019081526020016000208181548110611a4d57611a4c6139c7565b5b9060005260206000209060040201604051806080016040529081600082015481526020016001820160009054906101000a900473ffffffffffffffffffffffffffffffffffffffff1673ffffffffffffffffffffffffffffffffffffffff1673ffffffffffffffffffffffffffffffffffffffff16815260200160028201548152602001600382018054611ae090613840565b80601f0160208091040260200160405190810160405280929190818152602001828054611b0c90613840565b8015611b595780601f10611b2e57610100808354040283529160200191611b59565b820191906000526020600020905b815481529060010190602001808311611b3c57829003601f168201915b505050505081525050828683611b6f9190613a7d565b81518110611b8057611b7f6139c7565b5b60200260200101819052508080611b96906139f6565b915050611a20565b50809450505050505b92915050565b600a60089054906101000a900467ffffffffffffffff1681565b60606000600183611bd89190613a7d565b600d54611be59190613ab1565b90506000600d5482611bf791906138a1565b90506000600a60109054906101000a900467ffffffffffffffff1667ffffffffffffffff169050808310611c8457600067ffffffffffffffff811115611c4057611c3f612aeb565b5b604051908082528060200260200182016040528015611c7957816020015b611c6661279f565b815260200190600190039081611c5e5790505b5093505050506120b0565b80821115611c90578091505b60008383611c9e9190613a7d565b67ffffffffffffffff811115611cb757611cb6612aeb565b5b604051908082528060200260200182016040528015611cf057816020015b611cdd61279f565b815260200190600190039081611cd55790505b50905060008490505b838110156120a7576000600360008381526020019081526020016000209050600060405180610140016040528083600001548152602001836001018054611d3f90613840565b80601f0160208091040260200160405190810160405280929190818152602001828054611d6b90613840565b8015611db85780601f10611d8d57610100808354040283529160200191611db8565b820191906000526020600020905b815481529060010190602001808311611d9b57829003601f168201915b50505050508152602001836002018054611dd190613840565b80601f0160208091040260200160405190810160405280929190818152602001828054611dfd90613840565b8015611e4a5780601f10611e1f57610100808354040283529160200191611e4a565b820191906000526020600020905b815481529060010190602001808311611e2d57829003601f168201915b50505050508152602001836004018054611e6390613840565b80601f0160208091040260200160405190810160405280929190818152602001828054611e8f90613840565b8015611edc5780601f10611eb157610100808354040283529160200191611edc565b820191906000526020600020905b815481529060010190602001808311611ebf57829003601f168201915b50505050508152602001836003018054611ef590613840565b80601f0160208091040260200160405190810160405280929190818152602001828054611f2190613840565b8015611f6e5780601f10611f4357610100808354040283529160200191611f6e565b820191906000526020600020905b815481529060010190602001808311611f5157829003601f168201915b50505050508152602001836005018054611f8790613840565b80601f0160208091040260200160405190810160405280929190818152602001828054611fb390613840565b80156120005780601f10611fd557610100808354040283529160200191612000565b820191906000526020600020905b815481529060010190602001808311611fe357829003601f168201915b505050505081526020018360070160009054906101000a900473ffffffffffffffffffffffffffffffffffffffff1673ffffffffffffffffffffffffffffffffffffffff168152602001836008015481526020018360090154815260200183600a01548152509050808488856120769190613a7d565b81518110612087576120866139c7565b5b60200260200101819052505050808061209f906139f6565b915050611cf9565b50809450505050505b919050565b6000600a60109054906101000a900467ffffffffffffffff1667ffffffffffffffff1682111561211a576040517f08c379a0000000000000000000000000000000000000000000000000000000008152600401612111906139a7565b60405180910390fd5b600060036000848152602001908152602001600020905080600e0160003373ffffffffffffffffffffffffffffffffffffffff1673ffffffffffffffffffffffffffffffffffffffff16815260200190815260200160002060009054906101000a900460ff16915050919050565b600b60089054906101000a900467ffffffffffffffff1681565b60095481565b6006819080600181540180825580915050600190039060005260206000200160009091909190915090805190602001906121e39291906126d4565b50600b600081819054906101000a900467ffffffffffffffff168092919061220a90613b0b565b91906101000a81548167ffffffffffffffff021916908367ffffffffffffffff1602179055505050565b60028190806001815401808255809150506001900390600052602060002001600090919091909150908051906020019061226f9291906126d4565b50600a600081819054906101000a900467ffffffffffffffff168092919061229690613b0b565b91906101000a81548167ffffffffffffffff021916908367ffffffffffffffff1602179055505050565b60606006805480602002602001604051908101604052809291908181526020016000905b8282101561239057838290600052602060002001805461230390613840565b80601f016020809104026020016040519081016040528092919081815260200182805461232f90613840565b801561237c5780601f106123515761010080835404028352916020019161237c565b820191906000526020600020905b81548152906001019060200180831161235f57829003601f168201915b5050505050815260200190600101906122e4565b50505050905090565b600a60109054906101000a900467ffffffffffffffff1681565b600060036000848152602001908152602001600020905080600f01829080600181540180825580915050600190039060005260206000200160009091909190915090805190602001906124079291906126d4565b506000816010018360405161241c9190613933565b908152602001604051809103902081905550505050565b600160009054906101000a900460ff1681565b61244e612846565b612456612846565b600a60009054906101000a900467ffffffffffffffff16816000019067ffffffffffffffff16908167ffffffffffffffff1681525050600a60089054906101000a900467ffffffffffffffff16816020019067ffffffffffffffff16908167ffffffffffffffff1681525050600a60109054906101000a900467ffffffffffffffff16816040019067ffffffffffffffff16908167ffffffffffffffff1681525050600a60189054906101000a900467ffffffffffffffff16816060019067ffffffffffffffff16908167ffffffffffffffff1681525050600b60009054906101000a900467ffffffffffffffff16816080019067ffffffffffffffff16908167ffffffffffffffff1681525050600b60089054906101000a900467ffffffffffffffff168160a0019067ffffffffffffffff16908167ffffffffffffffff16815250506009548160c00181815250508091505090565b600a60009054906101000a900467ffffffffffffffff1681565b6060600a60109054906101000a900467ffffffffffffffff1667ffffffffffffffff1682111561262c576040517f08c379a0000000000000000000000000000000000000000000000000000000008152600401612623906139a7565b60405180910390fd5b600060036000848152602001908152602001600020905080600d018054806020026020016040519081016040528092919081815260200182805480156126c757602002820191906000526020600020905b8160009054906101000a900473ffffffffffffffffffffffffffffffffffffffff1673ffffffffffffffffffffffffffffffffffffffff168152602001906001019080831161267d575b5050505050915050919050565b8280546126e090613840565b90600052602060002090601f0160209004810192826127025760008555612749565b82601f1061271b57805160ff1916838001178555612749565b82800160010185558215612749579182015b8281111561274857825182559160200191906001019061272d565b5b50905061275691906128bf565b5090565b6040518060a0016040528060608152602001606081526020016060815260200160608152602001600073ffffffffffffffffffffffffffffffffffffffff1681525090565b604051806101400160405280600081526020016060815260200160608152602001606081526020016060815260200160608152602001600073ffffffffffffffffffffffffffffffffffffffff1681526020016000815260200160008152602001600081525090565b604051806080016040528060008152602001600073ffffffffffffffffffffffffffffffffffffffff16815260200160008152602001606081525090565b6040518060e00160405280600067ffffffffffffffff168152602001600067ffffffffffffffff168152602001600067ffffffffffffffff168152602001600067ffffffffffffffff168152602001600067ffffffffffffffff168152602001600067ffffffffffffffff168152602001600081525090565b5b808211156128d85760008160009055506001016128c0565b5090565b600081519050919050565b600082825260208201905092915050565b6000819050602082019050919050565b600081519050919050565b600082825260208201905092915050565b60005b83811015612942578082015181840152602081019050612927565b83811115612951576000848401525b50505050565b6000601f19601f8301169050919050565b600061297382612908565b61297d8185612913565b935061298d818560208601612924565b61299681612957565b840191505092915050565b60006129ad8383612968565b905092915050565b6000602082019050919050565b60006129cd826128dc565b6129d781856128e7565b9350836020820285016129e9856128f8565b8060005b85811015612a255784840389528151612a0685826129a1565b9450612a11836129b5565b925060208a019950506001810190506129ed565b50829750879550505050505092915050565b60006020820190508181036000830152612a5181846129c2565b905092915050565b600067ffffffffffffffff82169050919050565b612a7681612a59565b82525050565b6000602082019050612a916000830184612a6d565b92915050565b6000604051905090565b600080fd5b600080fd5b6000819050919050565b612abe81612aab565b8114612ac957600080fd5b50565b600081359050612adb81612ab5565b92915050565b600080fd5b600080fd5b7f4e487b7100000000000000000000000000000000000000000000000000000000600052604160045260246000fd5b612b2382612957565b810181811067ffffffffffffffff82111715612b4257612b41612aeb565b5b80604052505050565b6000612b55612a97565b9050612b618282612b1a565b919050565b600067ffffffffffffffff821115612b8157612b80612aeb565b5b612b8a82612957565b9050602081019050919050565b82818337600083830152505050565b6000612bb9612bb484612b66565b612b4b565b905082815260208101848484011115612bd557612bd4612ae6565b5b612be0848285612b97565b509392505050565b600082601f830112612bfd57612bfc612ae1565b5b8135612c0d848260208601612ba6565b91505092915050565b600080600060608486031215612c2f57612c2e612aa1565b5b6000612c3d86828701612acc565b9350506020612c4e86828701612acc565b925050604084013567ffffffffffffffff811115612c6f57612c6e612aa6565b5b612c7b86828701612be8565b9150509250925092565b600060208284031215612c9b57612c9a612aa1565b5b600082013567ffffffffffffffff811115612cb957612cb8612aa6565b5b612cc584828501612be8565b91505092915050565b600073ffffffffffffffffffffffffffffffffffffffff82169050919050565b6000612cf982612cce565b9050919050565b612d0981612cee565b82525050565b600060a0830160008301518482036000860152612d2c8282612968565b91505060208301518482036020860152612d468282612968565b91505060408301518482036040860152612d608282612968565b91505060608301518482036060860152612d7a8282612968565b9150506080830151612d8f6080860182612d00565b508091505092915050565b60006020820190508181036000830152612db48184612d0f565b905092915050565b60008060408385031215612dd357612dd2612aa1565b5b6000612de185828601612acc565b925050602083013567ffffffffffffffff811115612e0257612e01612aa6565b5b612e0e85828601612be8565b9150509250929050565b600060208284031215612e2e57612e2d612aa1565b5b6000612e3c84828501612acc565b91505092915050565b600081519050919050565b600082825260208201905092915050565b6000819050602082019050919050565b612e7a81612aab565b82525050565b6000612e8c8383612e71565b60208301905092915050565b6000602082019050919050565b6000612eb082612e45565b612eba8185612e50565b9350612ec583612e61565b8060005b83811015612ef6578151612edd8882612e80565b9750612ee883612e98565b925050600181019050612ec9565b5085935050505092915050565b60006040820190508181036000830152612f1d81856129c2565b90508181036020830152612f318184612ea5565b90509392505050565b600061014083016000830151612f536000860182612e71565b5060208301518482036020860152612f6b8282612968565b91505060408301518482036040860152612f858282612968565b91505060608301518482036060860152612f9f8282612968565b91505060808301518482036080860152612fb98282612968565b91505060a083015184820360a0860152612fd38282612968565b91505060c0830151612fe860c0860182612d00565b5060e0830151612ffb60e0860182612e71565b50610100830151613010610100860182612e71565b50610120830151613025610120860182612e71565b508091505092915050565b6000602082019050818103600083015261304a8184612f3a565b905092915050565b61305b81612cee565b811461306657600080fd5b50565b60008135905061307881613052565b92915050565b600080600080600080600080610100898b03121561309f5761309e612aa1565b5b600089013567ffffffffffffffff8111156130bd576130bc612aa6565b5b6130c98b828c01612be8565b98505060206130da8b828c01613069565b97505060406130eb8b828c01612acc565b965050606089013567ffffffffffffffff81111561310c5761310b612aa6565b5b6131188b828c01612be8565b955050608089013567ffffffffffffffff81111561313957613138612aa6565b5b6131458b828c01612be8565b94505060a089013567ffffffffffffffff81111561316657613165612aa6565b5b6131728b828c01612be8565b93505060c089013567ffffffffffffffff81111561319357613192612aa6565b5b61319f8b828c01612be8565b92505060e089013567ffffffffffffffff8111156131c0576131bf612aa6565b5b6131cc8b828c01612be8565b9150509295985092959890939650565b600080600080600060a086880312156131f8576131f7612aa1565b5b600086013567ffffffffffffffff81111561321657613215612aa6565b5b61322288828901612be8565b955050602086013567ffffffffffffffff81111561324357613242612aa6565b5b61324f88828901612be8565b945050604086013567ffffffffffffffff8111156132705761326f612aa6565b5b61327c88828901612be8565b935050606086013567ffffffffffffffff81111561329d5761329c612aa6565b5b6132a988828901612be8565b92505060806132ba88828901613069565b9150509295509295909350565b600080604083850312156132de576132dd612aa1565b5b60006132ec85828601612acc565b92505060206132fd85828601612acc565b9150509250929050565b600081519050919050565b600082825260208201905092915050565b6000819050602082019050919050565b600060808301600083015161334b6000860182612e71565b50602083015161335e6020860182612d00565b5060408301516133716040860182612e71565b50606083015184820360608601526133898282612968565b9150508091505092915050565b60006133a28383613333565b905092915050565b6000602082019050919050565b60006133c282613307565b6133cc8185613312565b9350836020820285016133de85613323565b8060005b8581101561341a57848403895281516133fb8582613396565b9450613406836133aa565b925060208a019950506001810190506133e2565b50829750879550505050505092915050565b6000602082019050818103600083015261344681846133b7565b905092915050565b600081519050919050565b600082825260208201905092915050565b6000819050602082019050919050565b6000610140830160008301516134936000860182612e71565b50602083015184820360208601526134ab8282612968565b915050604083015184820360408601526134c58282612968565b915050606083015184820360608601526134df8282612968565b915050608083015184820360808601526134f98282612968565b91505060a083015184820360a08601526135138282612968565b91505060c083015161352860c0860182612d00565b5060e083015161353b60e0860182612e71565b50610100830151613550610100860182612e71565b50610120830151613565610120860182612e71565b508091505092915050565b600061357c838361347a565b905092915050565b6000602082019050919050565b600061359c8261344e565b6135a68185613459565b9350836020820285016135b88561346a565b8060005b858110156135f457848403895281516135d58582613570565b94506135e083613584565b925060208a019950506001810190506135bc565b50829750879550505050505092915050565b600060208201905081810360008301526136208184613591565b905092915050565b60008115159050919050565b61363d81613628565b82525050565b60006020820190506136586000830184613634565b92915050565b61366781612aab565b82525050565b6000602082019050613682600083018461365e565b92915050565b61369181612a59565b82525050565b60e0820160008201516136ad6000850182613688565b5060208201516136c06020850182613688565b5060408201516136d36040850182613688565b5060608201516136e66060850182613688565b5060808201516136f96080850182613688565b5060a082015161370c60a0850182613688565b5060c082015161371f60c0850182612e71565b50505050565b600060e08201905061373a6000830184613697565b92915050565b600081519050919050565b600082825260208201905092915050565b6000819050602082019050919050565b60006137788383612d00565b60208301905092915050565b6000602082019050919050565b600061379c82613740565b6137a6818561374b565b93506137b18361375c565b8060005b838110156137e25781516137c9888261376c565b97506137d483613784565b9250506001810190506137b5565b5085935050505092915050565b600060208201905081810360008301526138098184613791565b905092915050565b7f4e487b7100000000000000000000000000000000000000000000000000000000600052602260045260246000fd5b6000600282049050600182168061385857607f821691505b6020821081141561386c5761386b613811565b5b50919050565b7f4e487b7100000000000000000000000000000000000000000000000000000000600052601160045260246000fd5b60006138ac82612aab565b91506138b783612aab565b9250827fffffffffffffffffffffffffffffffffffffffffffffffffffffffffffffffff038211156138ec576138eb613872565b5b828201905092915050565b600081905092915050565b600061390d82612908565b61391781856138f7565b9350613927818560208601612924565b80840191505092915050565b600061393f8284613902565b915081905092915050565b600082825260208201905092915050565b7f496e76616c69642063616d706169676e20494400000000000000000000000000600082015250565b600061399160138361394a565b915061399c8261395b565b602082019050919050565b600060208201905081810360008301526139c081613984565b9050919050565b7f4e487b7100000000000000000000000000000000000000000000000000000000600052603260045260246000fd5b6000613a0182612aab565b91507fffffffffffffffffffffffffffffffffffffffffffffffffffffffffffffffff821415613a3457613a33613872565b5b600182019050919050565b6000613a4a82612a59565b9150613a5583612a59565b92508267ffffffffffffffff03821115613a7257613a71613872565b5b828201905092915050565b6000613a8882612aab565b9150613a9383612aab565b925082821015613aa657613aa5613872565b5b828203905092915050565b6000613abc82612aab565b9150613ac783612aab565b9250817fffffffffffffffffffffffffffffffffffffffffffffffffffffffffffffffff0483118215151615613b0057613aff613872565b5b828202905092915050565b6000613b1682612a59565b915067ffffffffffffffff821415613b3157613b30613872565b5b60018201905091905056fea26469706673582212200cbfa3957b74bdd08d89da9584ab760f760d6fd9f083ab5f0aa3d9535b0dba7764736f6c634300080c0033",
  "linkReferences": {},
  "deployedLinkReferences": {}
}